:020000022000DC
:106000000000042061620200B9620200DD9102001A
:10601000BD620200BF620200C16202000000000017
:10602000000000000000000000000000C362020049
:10603000C562020000000000C7620200C9620200DF
:10604000C9BD0200CF620200D9BD0200D3620200C6
:10605000D5620200D7620200D5BA0200DB620200FC
:10606000DD620200DF620200E1620200E362020020
:10607000E5620200E7620200E9620200EB620200F0
:10608000ED62020055710200F1620200F36202004B
:10609000F1710200F762020065EB0200FB62020090
:1060A000FD620200FF62020001630200036302005E
:1060B0000563020007630200CB620200CB620200AC
:1060C000096302000B6302000D6302000F6302000C
:1060D00011630200136302001563020055B302004E
:1060E000196302001B6302001D630200CB62020001
:1060F000CB62020021630200CB6202001F63020038
:10610000364937480A1A02D0072291438D4635494D
:1061100035480A1A06D00722914381F309880222E2
:1061200082F3148831483249324A00F045F8324847
:106130003249334A00F040F832483349334A00F0DC
:106140003BF833483349344A00F036F83348344991
:10615000344A00F031F834483449354A00F02CF81C
:1061600034483549354A00F027F83548354900228A
:1061700000F02DF834483549002200F028F8344862
:106180003449091A082903DB002202600430016047
:10619000314A90471F482049884205D002680430A0
:1061A00003B4904703BCF7E700208646EC46002086
:1061B00000212A4A9047FEE7884207D0521A05D0AC
:1061C000037801300B700131013AF9D170478842F0
:1061D00002D002700130FAE770470000000004208E
:1061E00000E003200000042000000420D40C030081
:1061F000F02A0020A02B0020246302002463020068
:1062000000F90200D40C0300F02A0020F02A00203C
:10621000A8FA0200A8FA0200A8FA0200A8FA0200EE
:10622000A8FA0200A8FA0200A8FA0200A8FA0200DE
:10623000D40C0300840D0300A02B0020A02B002011
:10624000A02B002004400020044000200440002037
:10625000044000200460002085620200A1D30200F7
:106260000F484FF00701884385460E4880470E4887
:10627000016841F470010160BFF34F8FBFF36F8F6E
:10628000FFF73EBF09480A490A4A884207D0521A16
:1062900005D0037801300B700131013AF9D1704714
:1062A00000000420919C020088ED00E050FA0200FA
:1062B000982A0020F02A0020FEE7FEE7FEE7FEE72E
:1062C000FEE7FEE7FEE7FEE7FEE7FEE7FEE7FEE7A6
:1062D000FEE7FEE7FEE7FEE7FEE7FEE7FEE7FEE796
:1062E000FEE7FEE7FEE7FEE7FEE7FEE7FEE7FEE786
:1062F000FEE7FEE7FEE7FEE7FEE7FEE7FEE7FEE776
:10630000FEE7FEE7FEE7FEE7FEE7FEE7FEE7FEE765
:10631000FEE7FEE7FEE7FEE7FEE7FEE7FEE7FEE755
:04632000FEE700BFD5
:106324007047000007B5044B0093044A402300F073
:1063340032F803B05DF804FB45630200A12B002092
:106344002DE9F84389461446B2B10F4B0F4E03258D
:10635400002743F00108224609EB0701002007F05B
:10636400A9F90744241A48B933782BB14FF47A4079
:10637400C047013D02D13570BDE8F8830123337075
:10638400002CE8D1F8E700BFB0FA0200A02B0020EF
:10639400704707F0C3B9F0B595B01C4616460846D9
:1063A4000D4603F0C0FB1A9B0D93CDE9086400244D
:1063B4002346082205A928460A948DF82C400C94FB
:1063C40003F0EDFB079B0293BDF81830ADF80C30D9
:1063D400BDF81A30ADF80E309DF814308DF8114028
:1063E40003F00302012A1DD1BDF81440059EC3F336
:1063F400C203C4F383148DF81030A20008230EA93D
:10640400284603F0CCFBC6F3952608AB009322463E
:1064140002AB0EA9304600F0F5FB284603F087FBDB
:1064240015B0F0BD022AF8D1BDF81640C3F3C2037B
:10643400A4098DF810300827082C264628BF082602
:106444003B4632460EA9284603F0A9FBA41B08AB21
:1064540002AA31460EA8374400F038FC002CEBD1D8
:10646400DBE70000014B01221A707047222C002048
:106474007047000070B50E4D06460FCD88B06C46CF
:106484000FC495E80F0084E80F0008A9002E4FF010
:106494000603084A41F8203D08BF0022064803F0DD
:1064A40085FF08B100F0A8FD044B1E7008B070BD54
:1064B400C4FA020069640200F02A0020E12B0020E3
:1064C40007B5044B0093044A4023FFF764FF03B06D
:1064D4005DF804FBE1640200E22B002038B50D4BAB
:1064E4000D4D002018700D4804782D5DD2B21C4665
:1064F40065B1043006F0DEF808B100F07DFD084B0C
:106504001A7812B12378002BFBD038BD0C3005F07B
:10651400AFFEF1E7222C002024350020F02A0020D1
:10652400E12B002008B50848084A0378D35C3BB146
:10653400043006F069F80020BDE80840FFF79ABF70
:106544000C3005F03FFEF6E7F02A00202435002049
:106554000120FFF78FBF000038B5094CFFF719FF82
:1065640001250421204600F0BDFA6572054CFFF7B1
:10657400EFFF0421204600F0B5FA657238BD00BF74
:10658400042B0020102B0020037813F0030F03F0DA
:10659400040202D012B910467047B2B103F00303EB
:1065A400012B03D0022B09D0012070470A68008810
:1065B4000232C0F3831002440A60F5E70B68428894
:1065C400023303EB92130B60EEE70B68428801334E
:1065D40003EB92130288F4E72DE9F04F89B00546E6
:1065E400861C08A8484C019200230F4600F8113D70
:1065F40002F0B8FD23683B60D4E901231344226808
:1066040001339B1A04F21C4704F5836A04F214480C
:10661400B3421AD3019A0023002A6DD0012262F3F7
:10662400010343F0040365F389132168A2689DF80C
:106634000F000A4003320E4444F82230266002F070
:10664400B5FD012009B0BDE8F08F0121384602F004
:10665400D0FE504602F0F0FE404602F0EDFE0DF191
:1066640020096068D4F808B049F8100D00EA0B005E
:10667400033004EB80004946FFF786FF049BB0B962
:106684000BEA030204EB8202D16805919A1C0133E0
:1066940003EA0B0B04EB8B0C01F00303012B0492B4
:1066A400DCF80CB020D0022B04D083460BE00BEABC
:1066B4000300DDE7BDF816309B0903334FEA1B4B9B
:1066C40002EB93030493404602F0B9FE08B1049B25
:1066D40063605946384602F08CFED4E90123134422
:1066E400226801339B1A93E7BDF81430C3F3831374
:1066F4004FEA1B4B1344E5E7022262F3010343F024
:10670400040365F39F5390E7F42C002008B50E4B67
:106714000E48FF229A600022C3F81824C3E900221D
:10672400C3F8142483F8202403F0B6F938B9084ACE
:10673400084B09499B1ADB0802469A4200D108BD5E
:1067440021F822200132F8E7F42C002008FA020094
:1067540058F9020008FA0200982A002030B50B4CC0
:1067640079B10B4A0B49121BD20800239A4201D17A
:10677400002030BD01EB83056D88854202D00133D2
:10678400F4E7034654F83300F3E700BF58F9020076
:1067940008FA0200982A0020094B013903EBC000D3
:1067A400032909D8DFE801F00A020406042070472F
:1067B4000079704740797047002070470220704785
:1067C40058F90200034BD3E90030C31A5842584128
:1067D400704700BFF42C00202DE9F04387B0FFF789
:1067E400F1FF0746002840F0F5807B4DC5F81804FA
:1067F400BFF34F8F6868AC680DF1180848F8100DA6
:106804002040033005EB80004146FFF7BDFE029BAC
:10681400064600285FD104EA0302991C013305EB04
:106824008202234005EB8303D268DB68049302F001
:106834000303022B0392029162D1BDF80E30674824
:106844004FEA9318B8F1500FC14628BF4FF05009D2
:1068540069F38F1309F10801ADF80E3003F034F930
:106864000746002800F0A48003F05DF9334603A92D
:106874000822384603F06AF9029924EA010601362F
:10688400B600B14535D95FFA89F97EB3F6B2A9EB02
:106894000609214003315FFA89F4B146504E05EBF5
:1068A400810108234A46384603F050F936B109F10C
:1068B400080322463146384603F048F9029B08F1A2
:1068C400030803EB98030293D5F81834002B4AD13C
:1068D400D5F8104458E02A689A4204D86A603846C9
:1068E40007B0BDE8F08304EA03008AE73C49344674
:1068F400D7E72140033108234A4605EB8101DAE753
:10690400012B55D1BDF80C303448C3F3831106294B
:1069140028BF062161F3891302318900ADF80C30D8
:1069240003F0D2F80746002842D003F0FCF83346BF
:10693400082203A9384603F009F9BDF80C20C2F374
:106944008312B31C96424FEA8303BDD202994A1CB8
:1069540021400331029205EB81010422384603F001
:10696400F5F80136E9E7384603F0E1F8FFF72AFFC6
:1069740080F00100C7B2B2E7637A23B123683946D5
:106984001B68204698476468002CF5D1384603F00C
:10699400CEF806A800F8114D02F0E4FBD5F818343F
:1069A4000BB9029B6B609DF8070002F0FFFBDDE76B
:1069B400D5F8104444B90B4B0B491888000440F037
:1069C400020000F06BF8D1E7236820469B689847E3
:1069D4006468EFE7002782E7F42C002008FA02003D
:1069E400002D0020B02A0020F0FA02002DE9F74F14
:1069F400284C80460F46924601A9012218469B4620
:106A0400D4F80890FFF7E8FD88B3019D0026A91C7F
:106A14005E4506EB010234D100211F4802F0BEFCA2
:106A240080F310006A1C02EA090204EB82020004EB
:106A340005EA0903033340EA1840D06014F8232020
:106A440068F3C50204F8232034F8232066F389127E
:106A540024F8232054F82320012167F39F2244F8CB
:106A6400232061F301026FF3820204F8232094F8D7
:106A740020341BB1FFF7B0FE0028FBD103B0BDE802
:106A8400F08F09EA020204EB82025AF82630D3603E
:106A94000136BDE7F42C00201031002000231A46F3
:106AA400FFF7A4BF13B502AC012344F8042D22461A
:106AB400FFF79CFF02B010BD07B5CDE90023022308
:106AC4006A46FFF793FF03B05DF804FB1FB5CDE9F9
:106AD4000123069B039301AA0323FFF787FF05B055
:106AE4005DF804FB0F4A30B5D2F810440023214668
:106AF40041B90372D2F810444CB9C2F81004416091
:106B0400184630BD0D7A9D4205D04968F0E76268A9
:106B140042606060F4E701330A2BE8D14FF0FF33A1
:106B2400EEE700BFF42C0020084A38B50123D2F860
:106B3400104482F820341D4604B938BD23686572B8
:106B440020465B6898476468F6E700BFF42C002091
:106B5400037A052B10B50C460FD0437A23B1084AAB
:106B64000849204602F0CCFC0749204602F0C8FC44
:106B74002046BDE8104002F0B8BC002AF8D0F3E784
:106B84004BFB0200C40503006DFB0200C38873B510
:106B940004460D4633B1144A00921449144A284657
:106BA40002F0AEFC217A05291CD0637A4BB1A0888F
:106BB400FFF7F2FD0F4B104953F82020284602F04E
:106BC4009FFC227A0D4BA08853F822600021FFF726
:106BD400C5FD0B4903463246284602B0BDE8704065
:106BE40002F08EBC02B070BD4BFB020058FB0200E9
:106BF40050FB020018FB0200C40503007CFB0200EA
:106C040070FB02002DE9F04385B01F460C9D002364
:106C140006460C46904695F80C902B732946384648
:106C2400FFF7B4FFB8F1060F09D8DFE808F0041243
:106C3400181F283340003146284602F061FC002228
:106C440029463846FFF784FF85F80C9005B0BDE867
:106C5400F08322683146284602F052FCEFE7D4E97B
:106C640000233146284602F04BFCE8E7A368009372
:106C74003146D4E90023284602F042FCDFE7E3680A
:106C84000193A36800933146D4E90023284602F017
:106C940037FCD4E723690293E3680193A368009364
:106CA4003146D4E90023284602F02AFCC7E7636989
:106CB400039323690293E3680193A3680093314625
:106CC400D4E90023284602F01BFCB8E708292DE983
:106CD400F84F80460E4617461C4636D8002593F8D2
:106CE4000C901D7319461046FFF750FFDFF87CA087
:106CF400DFF87CB0AE422AD918F805205946204660
:106D040002F0FEFB0135082DF4D11649DFF864B01A
:106D1400204602F0F5FB0025AE421DD918F805A067
:106D2400504608F07BF9002814BF52462E225946DB
:106D3400204602F0E5FB0135082DEDD10122214664
:106D44003846FFF705FF84F80C90BDE8F88F5146EC
:106D5400204602F0D5FBD5E70349204602F0D0FBDC
:106D6400E9E700BF46FB020044FB020042FB0200CD
:106D74003CFB020048FB02002DE9F04F3B4F89B079
:106D840000263B4B1B78F5B2AB4202D809B0BDE8F4
:106D9400F08F384B196811F835000124A0F1200256
:106DA400C0F1200304FA02F924FA03F349EA0309BF
:106DB400D7E9002304FA00F8CDE9042302EA080223
:106DC40003EA0903134301EBC50B4CD0DDE90423AB
:106DD40022EA080223EA0903C7E90023079104F021
:106DE40067FE0799844611F83500A0F12002C0F12E
:106DF400200324FA03F304FA02F21A4304FA00F318
:106E040000931D4B0192DDE90045D3E900231440B2
:106E14001D4022462B465FFA8CF40025CDE904453B
:106E2400049CA0F12005AC400394049CC0F1200113
:106E340024FA01F1039C0C430499039481400291C8
:106E4400DDE90245AB4208BFA2420CD19BF8011018
:106E54004B1E59425941A1EB0C02DBF8043051425C
:106E6400514103B1984701368BE700BF48310020F8
:106E74001831002050310020403100202DE9F84F16
:106E84000646244800F08EFB002841D10123A6F1D8
:106E94002001C6F1200203FA01FB23FA02F203FAED
:106EA40006FA1D4BD3E900014BEA020B00EA0A087B
:106EB40001EA0B0958EA09021F4623D1304604F0BF
:106EC400F7FD164BB8B1D3E9000140EA0A0441EAE0
:106ED4000B05C3E90045D7E900234BEA0305104B32
:106EE4000C4819684AEA0204C7E900450022BDE8D3
:106EF400F84F00F013BBD3E9000120EA0A0421EAA9
:106F04000B05E6E720EA0A0421EA0B05C3E900457C
:106F1400BDE8F88F203100204831002040310020A6
:106F24001C310020042A2DE9F34105460C4616467F
:106F34003AD904F0E3FCD8B11C4B1D491D601D4B2C
:106F4400DFF884801C701C4B00221E600023C1E902
:106F540000231A49C1E90023013CE4B200260327B7
:106F6400FF2C0CD1164A1748002100F0C5FA03E0A3
:106F740004F08CFC0028DFD002B0BDE8F08123B21D
:106F840005EBC30201A992788DF8052015F83300AA
:106F94008DF8066042468DF8047004F0B9FC013C9B
:106FA400E4B20028DCD0E7E70720E5E75031002011
:106FB40040310020183100201C31002048310020CD
:106FC4007D6D0200DCFB0200816E020070B5084D8D
:106FD400084E00242B789C4201D3002070BD3368F6
:106FE400012113F8340004F019FD0134F2E700BF65
:106FF40018310020503100201FB50021039001AA50
:1070040044F20100CDE9011100F004F805B05DF887
:1070140004FB000010B572B6FFF786FDFFF7DCFB3A
:107024000028FBD1104C11492088000440F00100D5
:10703400FFF734FD0E4B1B68DB0700D500BE20882C
:107044000C49000440F00200FFF728FDBFF34F8F06
:1070540009490A4BCA6802F4E0621343CB60BFF3E8
:107064004F8F00BFFDE700BFB02A0020E0FB020005
:10707400F0ED00E0ECFB020000ED00E00400FA0596
:10708400094A537891780133DBB2994208BF00234F
:10709400117899421FBF03705078182303FB002016
:1070A40014BF0430002070475431002073B50546E6
:1070B40002A8002400F8014D0E4602F053F80DF129
:1070C4000600FFF7DDFF90B106700A4B9DF806201D
:1070D40045605A709DF8070002F068F824B9064B21
:1070E4004FF48012C3F80021204602B070BD04247E
:1070F400F0E700BF5431002000E100E0024B4FF400
:107104003C6043F00103184700FC020038B50C4B07
:107114000C4C4FF40032C3F8802001254FF4803327
:10712400C4F84833C4F808336560FFF7E7FF064B3B
:10713400A56000241C60FFF7E1FF044B1C7038BD00
:1071440000E100E0001001407032002061320020B4
:10715400F8B51F4B1F491B680025C1F84051C1F801
:107164004451C1F84851C1F84C51C1F80051C1F81B
:1071740004514BB3D1F8044517490968641A24F043
:107184007F442F461A68A24209D8A41A15441A7CCF
:10719400DE691AB11F74D3E905209047AEB90F4BCD
:1071A4000F4A197813788B4205D10133DBB2022BD5
:1071B40008BF0023137012780A4B43F822500A4B7D
:1071C4004FF48012C3F80021F8BD3346DAE700BF5C
:1071D4007432002000100140703200206C32002014
:1071E4006D3200206432002000E100E02DE9F74F09
:1071F4009E4A9F49137809789E4D99423CD00133A9
:10720400DBB2022B08BF002313709B4912789B4BFF
:107214000F6853F822003B1823F07F4300220B60D1
:107224002B6816461446944613B942B12B6006E007
:10723400196881420ED902B12B60091A19604FF006
:1072440001082B68DFF83CA200930027BEB9DFF8E1
:107254003CB260E0401A0C44D968C3F800C0D3F8CB
:107264001CE031B13A1922F07F42C3E90121DE6109
:107274001E4601227346D7E70026B046E1E73446AE
:10728400F6697D4A63681268DFF804C2A068991A37
:1072940021F07F41614500F2A58001442160012273
:1072A40022742A680023C4E90133E361002A40F010
:1072B400A2802C60CAE75A1C9BF80210D2B29142F9
:1072C4008BF8002004BF00228BF80020182202FB58
:1072D40003B32A6819799C68022974D003297ED0E3
:1072E400012918D1217CB1B9DA6862601A69A260F7
:1072F4005A699B69A361624BE2601B78002BC0D082
:107304006160BEE79C4200F093809946DB69002BE4
:10731400F8D1002323749BF800309BF801209A4293
:10732400C9D12B682FB9009A934202D1B8F1000F4A
:1073340043D0002B79D0D3F800A0524D4E4BD5F852
:1073440004751C68DFF84C813E1B98F8003026F069
:107354007F4603369BB94FF48033C5F84433C5F8F0
:107364000433494B4FF400324FF00109C3F8802134
:107374001A60C5F80090FFF7C1FE88F80090B24586
:107384002CBF5444A41924F07F44C5F84045D5F8D3
:107394000435DB1B23F07F43E41B033324F07F44D9
:1073A400A3420AD9D5F80435C5F84035FFF7A6FE3F
:1073B400354B4FF40032C3F80021314B00221A70D0
:1073C40003B0BDE8F08F13469146A0E71174D2696B
:1073D4000123002AFAD1002B9DD02A609BE70023C9
:1073E4001946F6E7D31A23F07F43834234BFC31A06
:1073F4000023236053E721681368994213D8591A6C
:107404001160E26155E7091AD8691A4638B1034692
:1074140018688842F7D3401A18601846134621604A
:10742400E061DC6112E71346F2E7FFF76FFEC4E7A1
:107434004C450DD1D3692B6053B90F4801920121FA
:10744400CAF8081003600E4B1970FFF757FE019A33
:10745400E1692368C9F81C1011B1086803440B6082
:107464002B689A4218BF012753E700BF6C320020F3
:107474006D3200207432002070320020643200200B
:10748400603200200010014000E100E0543100208F
:10749400FEFF7F006132002008B5FFF737FE104B76
:1074A40000200B2218809A700E4B18600E4B187037
:1074B4000E4B18700E4B4FF48012E021C3F880215C
:1074C40083F814131A6002F18042A2F56F22C2F805
:1074D400080583F81113074BD2F804251A6008BD78
:1074E40054310020743200206C3200206D320020B0
:1074F40000E100E070320020074B9B784BB132B1C1
:1075040028B10368187C20B959745A617047072060
:1075140070470820704700BF543100202DE9F7431D
:107524001D4FBB7805460E4690469BB390B3042985
:107534002ED9436973B3437C02A80024012B00F8BD
:10754400014D0CBF8946A14601F00CFE0DF1060069
:10755400FFF796FDD0B101230370104B4560D3F8BB
:107564000435C0E90498C0E902369DF806307B7002
:107574009DF8070001F01AFE24B9094B4FF480125C
:10758400C3F80021204603B0BDE8F0830424EFE7EC
:107594000724F7E70824F5E75431002000100140E0
:1075A40000E100E0064A92783AB130B1426922B172
:1075B400002202740221FFF779BD0820704700BF42
:1075C4005431002043681B6818470000024B5B6875
:1075D40003B11847704700BF7C320020020600F058
:1075E4000F034CBF02480348DB001844704700BF38
:1075F40088320020D032002008B5FFF7EFFF016089
:1076040009B9416008BD4B681B684360FAE7000094
:10761400024B01465A681868104700BFD032002058
:1076240073B5054601A9144801F027FE044600B3CA
:107634002B68036002A8002600F8056D01F092FD96
:107644000E4B0F481B88026801339B1AE3803146B6
:1076540001F0A4FEA0809DF8030001F0A7FD01A99C
:10766400054801F034FE074B1B6801460BB1284660
:10767400984702B070BD00BF242B002018330020AF
:10768400303400207C3200200148FFF7C9BF00BF1E
:1076940020FC020038B5831EDBB2062B98BF194AC2
:1076A400194C98BFD25C2378A3F10203DBB288BFE4
:1076B4000022062B9ABF1349CB5C00239342054654
:1076C40003D0A2B1114802F01FFD022D01D0082DF4
:1076D40010D101232278022A01D0082A0CD10122D8
:1076E4009A4202D053B103F09BFB257038BD02F0DF
:1076F40045FDEAE70023EDE70022F1E703F086FB0E
:10770400F3E700BF06FC0200343400201C2B0020E9
:10771400037837B50546DBB902A80F4C00F8013DE4
:1077240001F020FD226812B90C4B6A881A800121ED
:10773400094801F05EFE9DF8070001F037FD084B93
:107744001B6813B1012128469847236803B030BD54
:10775400FFF766FFFAE700BF30340020183300203B
:107764007C320020FFF7D4BF012806D002D30228C0
:1077740005D070470348FFF7CBBF0348FBE7034836
:10778400F9E700BF14FC020018FC02001CFC020014
:107794002DE9F04F87B006AC002644F8106D05467D
:1077A4008946924698466B6800225F682946012301
:1077B4002046B84740B98DF80600049004460746B1
:1077C400BE4203D805202AE00136ECE76B680DF1D0
:1077D4000602D3F804B02946012304A8D8476B68ED
:1077E4000DF10702D3F804B02946012304A8D847B1
:1077F4009DF807304B459DF8063015D1544511D1FD
:10780400109A136088F8003088F801906A68023B87
:107814005468294608F1020204A8A047002007B0D2
:10782400BDE8F08F0134E4B26A68023BD2F804B0D8
:107834002946002204A8D8479DF806301F44BFE714
:107844002DE9F743082305464FF484722F49304845
:1078540001F000FD002856D12E4803F0F1FA044649
:10786400002835D12C4B18702C4B18602C4B01463A
:10787400186048222B4807F023FC482221462A4856
:1078840007F01EFC294B3DBBC3E900551D720020C7
:1078940002F006FD18B1852801D0FFF7ADFB244E98
:1078A40096F80890002506F10908ECB2A14504D920
:1078B40004EB440414EB080423D102A90B2301F8BC
:1078C400043D1B48FFF77EFE044608B103F070F93F
:1078D400204603B0BDE8F08395E8070083E807007D
:1078E400D5E73146E05CFFF787FE6378FAB293424E
:1078F40005D9A3781344DC4207F10107F1D101351E
:10790400D3E70027F1E70324E2E700BF1A3300209E
:10791400242B002069770200343400202434002012
:107924002834002088320020D03200207C3200200D
:1079340060FC020010B503F027FA08B9082010BD56
:1079440003F02AFA04460028F8D1044802F0D6FCD1
:107954000028F4D0FFF750FB2046F0E710FC0200AB
:1079640003F036B903F0F2BD4FF08043D3F8382466
:10797400920702D50348FFF753BED3F83824D10742
:10798400F4D4704721FC020007B502A8822300F852
:10799400043DFFF745FE03B05DF804FB2DE9F34118
:1079A400037A00F109040325064615FB034527461F
:1079B400AC4231D01CB394F80180002106E0E05CB5
:1079C400FFF70CFE03680131002B36D1CBB298458A
:1079D40003D9A3780B44DC42F1D10334E8E7314600
:1079E400E85CFFF709FE6A785FFA88F39A4205D9E2
:1079F400AA781344DD4208F10108F0D10134337A46
:107A0400E5B2AB4203D905EB45057D1901D10C4B19
:107A140005E04FF00008E6E70024F0E713681A6871
:107A2400002AFBD102A91E600B2301F8043D304655
:107A3400FFF7C8FD02B0BDE8F0811120FAE700BFEE
:107A440024340020024B1878003018BF01207047FE
:107A54002C34002000F00F03072B10B5044604D883
:107A640003F026FB204603F0FFFA2046BDE8104051
:107A740003F0F4BD014B1868704700BF24340020A4
:107A840070B50A4B1B687BB11E7A0022D5B2B54291
:107A940001D31B68F6E7013202EB42041C44A479CB
:107AA4008442F3D101B10D70184670BD2434002016
:107AB4001146FFF787BD08B500F00F03082B07D860
:107AC400FFF78CFD006818B1BDE80840FFF77ABDE8
:107AD400102008BD38B5054B05461C6804B938BDEF
:107AE40029462046FFF76EFD2368F6E7243400207C
:107AF40038B5074B05461C680CB9062038BD294625
:107B04002046FFF75FFD0628F8D12368F3E700BF9E
:107B14002434002038B504460D4603F0D6F948B1A4
:107B2400054B1B78022B05D129462046BDE8384079
:107B340003F0CEB9082038BD3434002038B50446EB
:107B44000D4603F0C2F948B1054B1B78022B05D151
:107B540029462046BDE8384003F032BA082038BD33
:107B640034340020F8B543689B6805460C46164635
:107B740013B92EB1072002E098470628F9D0F8BDC2
:107B84002B7AA34213D9093504EB44042C446778B7
:107B9400F3B29F4201D80020F1E762789A4208D9F3
:107BA400A219A378D05CFFF755FF0136F0E773788C
:107BB400FFDE00231B78FBE74368DB6870B50546EE
:107BC4000C4603B198472B7AA34213D9093504EB29
:107BD40044042C4400256678EBB29E4200D870BD64
:107BE40062789A4209D96219A378D05C03F004FD43
:107BF4000135F1E700235B78FFDE00231B78FBE708
:107C040043681B6903B118471846704770B5084BA1
:107C14001C6804B970BD267A0025E9B2B14201D3CB
:107C24002368F5E700222046FFF79CFF0135F4E7BF
:107C34002434002070B5084B1C6804B970BD267A42
:107C44000025E9B2B14201D32368F5E72046FFF7E6
:107C5400B3FF0135F5E700BF2434002038B50478BC
:107C6400082C054628D01ED8032C00F0AB8012D86F
:107C7400012C00F0978040F287800320FFF70AFD73
:107C84000220FFF7A3FC2846FFF724FF2846BDE89F
:107C94003840FFF7BDBC052CF9D0C0F09580062C08
:107CA40000F0A18038BD802C58D007D80A2C03D00E
:107CB400C0F0AE800F2CF5D12046AAE0822C2FD044
:107CC40013D3832C56D0842CECD1534B1B78032B29
:107CD40005D103F055FC10B10420FFF7DBFC03F0E1
:107CE40065F80028DED0062014E04C48FFF790FC2D
:107CF4004A48FFF7EFFE0D20FFF768FC484B1B686E
:107D040063B9484B187A00F0010003F011F8FFF74B
:107D140091FF0120BDE83840FFF7BCBC0120F2E729
:107D2400FFF788FF03F0F6FB0020FFF7B3FC3E48A3
:107D3400FFF7D0FE3C48FFF76BFC0E20FFF746FC34
:107D4400354B1B78023BDBB2062BABD8374AD35CEE
:107D5400002BA7D0BDE8384002F010BA2E4B1B7898
:107D6400062B05D0072B01D0052B9BD10220D1E790
:107D74000820CFE7284B1B78032B93D103F000FC9A
:107D840000288FD00420C5E70020FFF71FFC244BF8
:107D94001C68002C86D020462946FFF713FC236874
:107DA4005C68F6E7FFF746FF0220FFF773FC204606
:107DB400FFF70CFC2846FFF72BFC2846BDE83840AB
:107DC400FFF788BE0520F0E70320FFF7FFFB184804
:107DD400FFF71EFC1648FFF77DFE0F4B1B78062BA2
:107DE400C4D1072096E78078FFF7F8FB294643685B
:107DF4000068984700283FF455AFA87800F00F03B7
:107E0400013B062B3FF64EAFBDE8384003F020B9E6
:107E14000920FFF7DBFBD0E73434002022FC02000A
:107E2400283400207C32002023FC020006FC0200DF
:107E340024FC020073B5234D002301932B6823B95E
:107E44002149224801F053FA28602C68ECB1A68835
:107E540086B1E388B3F5006F24BF0023E380E38891
:107E6400ADF806305A1C013EE280A68001A8FFF757
:107E7400F5FE07E02046FFF7F1FE1349134801F031
:107E840061FA2E60012002B070BD114B1868002801
:107E9400F9D002A800F8054D01F064F90D4B0C4827
:107EA4001A88B2F5006F28BF1C801A88ADF8062026
:107EB400511C1980012101F0B2FA9DF8030001F070
:107EC40075F9D3E73834002078320020242B0020C1
:107ED4003034002018330020C36903B118477047B9
:107EE400036800229A831A629A62C3E91D22C3E9D5
:107EF4001F2203F130021A677047CA699A4210B50B
:107F040043600CD38C690460086F18440867D01A66
:107F14001C44C86100308C6118BF012010BD01F100
:107F2400280202608B670020F8E70000F0B5BB4D23
:107F34000C7A2C700468B4F5517F00F0C98200F209
:107F4400DA8040F22636B44200F03D826DD840F229
:107F54001636B44200F0FA8126D840F21336B44201
:107F640000F0D981B4F5457F0BD2002C00F0C1811B
:107F740040F21236B44200F0C48100230360184674
:107F8400BEE100F0D68140F21536B442F5D10024AA
:107F94000AB106791655013402269C420671C0F0D6
:107FA400D68140F21633A9E140F21936B44200F00A
:107FB400E68114D840F21736B44200F0D381B4F508
:107FC400467FDAD100240AB1067916550134002619
:107FD4009C420671C0F0D48140F219338EE1B4F5AD
:107FE400487F00F0E38140F22136B442C5D1002439
:107FF4000AB1067916558A4E0F7A3678DFF824C20C
:10800400B74204F1010440F2548301F1090706EB7D
:10801400460607EB060E9C42BE5DCCF800E00671F6
:10802400C0F0D28140F2263368E140F23336B442E4
:1080340000F00882B4F54D7F38D2B4F54B7F00F0E0
:10804400DD811CD840F22736B44200F0C881B4F573
:108054004A7F92D100240AB106791655714E0F7DDC
:1080640036683678B74204F1010440F0E081022614
:108074009C420671C0F0C3814FF44B733EE140F261
:108084002D36B44200F0C68140F22E36B4427FF45D
:1080940074AF00240AB10679165501340026A342B0
:1080A400067100F2E9814FF44F7327E1B4F54F7F75
:1080B40000F0E18106D8B4F54D7F00F0CF8140F2A5
:1080C4003536E3E740F24236B44200F0E98100F28B
:1080D400F38140F24136B4427FF44FAF00240AB139
:1080E40006791655013424269C420671C0F0D981C4
:1080F40040F2423302E140F25636B44200F0538279
:108104006AD8B4F5537F00F01C8232D840F2493665
:10811400B44200F0FD8115D840F24536B44200F077
:10812400E381B4F5527F7FF428AF00240AB10679C5
:108134001655013424269C420671C0F0EA8140F2AF
:108144004933DBE040F24A36B44200F0ED8140F2BC
:108154004B36B4427FF411AF00240AB106791655A8
:1081640001348E7D06719C42C0F0EC814FF4537350
:10817400C4E040F25136B44200F0FC8115D840F21C
:108184004F36B44200F0E981B4F5547F7FF4F5AE84
:1081940000240AB106791655013402269C42067160
:1081A400C0F0E98140F25133A8E040F25236B442C3
:1081B40000F0EC8140F25536B4427FF4DEAE002488
:1081C4000AB106791655013424269C420671C0F082
:1081D400EB8140F2563391E040F27236B44200F043
:1081E400278246D840F25936B44200F0F5811BD8B4
:1081F40040F25736B44200F0E281B4F5567F7FF482
:10820400BCAE00240AB10679165501348E7D067180
:108214009C42C0F0E28140F259336FE03E340020CA
:108224003D3400204034002040F26D36B44200F06A
:10823400F28140F26E36B4427FF49FAE00240AB15C
:1082440006791655AF4EB04F36683F7896F801C0A0
:10825400BC4504F1010440F2318296F802C03E4468
:108264009C4216F80C600671C0F0E38140F2723350
:1082740044E040F28336B44200F0FA81B4F5617F01
:1082840014D240F27736B44203D0B4F55F7F7FF462
:1082940074AE00240AB10679165501344026A3426F
:1082A400067100F2E68140F2833327E040F289361A
:1082B400B44200F0F48140F28E36B44200F0EF8113
:1082C400B4F5617F7FF459AE00240AB106791655DE
:1082D4008C4E0F7D36683678B74204F1010440F0C5
:1082E400D48110269C420671C0F0DA8140F28933B1
:1082F40004E00824047123B940F21233036001201E
:10830400F0BD0AB1047914700B24012B04710ED84A
:1083140040F21333F2E700240AB10679165501340A
:108324000E7D06719C4205D34FF44573E6E70124A4
:10833400F2E700240AB106791655013402269C425C
:108344000671FFF425AE40F21533D7E700240AB1D5
:1083540006791655013402269C42067103D340F275
:108364001733CBE700240AB10679165501344E7E43
:1083740006719C42FFF427AE4FF44673BEE7002417
:108384000AB106791655614E0027013437705F4EE5
:1083940037782E78B74202D340F29933AEE70926F4
:1083A400A342067103D84FF44873A7E700240AB127
:1083B40006791655013404269C420671FFF418AE62
:1083C40040F221339AE700240AB1067916550134A4
:1083D40000269C42067103D340F227338EE7002423
:1083E4000AB106791655474E366801347678067117
:1083F4009C42FFF430AE4FF44A737FE700240AB185
:1084040006791655013402269C42067103D340F2C4
:108414002D3373E700240AB10679165501344E7ED4
:1084240006719C42FFF436AE40F22E3366E78F7D30
:10843400B7427FF433AE0A269C42067103D340F25E
:1084440033335BE700240AB106791655013400265C
:108454009C42067103D34FF44D734FE700240AB1D5
:1084640006791655013400269C420671FFF412AEBB
:1084740040F2353342E700240AB106791655214EFD
:108484000F7D36683678B74204F1010440F0A980C4
:1084940005269C420671FFF422AE40F241332DE7DB
:1084A40000240AB106791655013400269C4206714F
:1084B40003D340F2433321E700240AB10679165569
:1084C400013410269C42067103D34FF4517315E70F
:1084D40000240AB106791655013401269C4206711E
:1084E40003D340F2453309E700240AB1067916554F
:1084F400013405269C420671FFF418AE4FF4527302
:10850400FCE600BF403400203F3400203D3400200E
:1085140000240AB106791655013401269C420671DD
:1085240003D340F24A33E9E600240AB1067916552A
:10853400013403269C420671FFF40FAE40F24B3324
:10854400DCE600240AB106791655013404269C425F
:10855400067103D340F24F33D0E600240AB1067902
:108564001655013424269C420671FFF412AE4FF4D2
:108574005473C3E600240AB1067916550134022661
:108584009C42067103D340F25233B7E600240AB189
:1085940006791655013405269C420671FFF410AE87
:1085A40040F25533AAE600240AB10679165501347F
:1085B40006269C42067103D340F257339EE60024FC
:1085C4000AB10679165501340E7D06719C42FFF4FA
:1085D40019AE4FF4567391E600240AB10679165584
:1085E4000134374E36687778364E3770364E00276A
:1085F4003770354E3778334E3678B74204D3334F1D
:108604003E7801363E70C2E60726A342067103D8BF
:1086140040F26D3372E600240AB10679165501342E
:1086240005269C420671FFF40AAE40F26E3365E6FD
:1086340000240AB106791655214E0F7D3668367826
:10864400B74204F1010407D103269C420671FFF4EA
:1086540021AE40F2773351E68F7DB7427FF41EAEF0
:1086640002269C420671FFF415AE4FF45F7345E693
:1086740000240AB106791655013400269C4206717D
:10868400FFF423AE4FF4617338E68F7DB7420BD10C
:1086940000269C42067103D340F28E332EE600245A
:1086A4000AB1067916550134074F3E7801363E70FB
:1086B4009FE70023CCF800301B78FFDE0023FBE7A4
:1086C400403400203C3400203F3400203D3400205E
:1086D40010B5044658B90868037A202B09D100F173
:1086E4000A010722143006F0C2FC204610BD032004
:1086F400FCE70620FAE7037A012B08D9427B012A1A
:1087040000F10C0306D9827B134458787047002388
:108714005B78FFDE00231B78FBE700002DE9F043C4
:108724000B7889B005460E460E2B17D8DFE803F008
:108734000A080A0A160CA1161608160A0A0A0A00DA
:10874400FFF7CEFB002427E04A78D1094FEA521301
:1087540030D013F0030303D0012B21D006241BE0F7
:1087640002F01F02012AF9D1B478062CF6D105A82B
:10877400039300F0B1FC03ABF27831790093074620
:1087840003462846FFF704F8052805D0039A39461E
:10879400701C00F02BFA0446204609B0BDE8F083B3
:1087A400B378212BDAD1B6F80720072AD6D101688D
:1087B4001431EDE7012BD1D1B3780768202B35D0E4
:1087C400222BCBD1B6F80730002BC7D13B7FB6F8AC
:1087D4000340BC8303F0010304F00104A342B1D0BD
:1087E400A4B2002C0CBF03210221FFF775FB002C5F
:1087F400A8D12B7A012B40F2D5806B7B05F10C02BA
:10880400002B00F0D180AB7BD05C02F065FD2846E4
:10881400FFF771FF02F060FD07F130033C62BC62B8
:10882400C7E91D44C7E91F443B67B5E7B6F80730FD
:10883400072B93D108A800244FF4E4623A8100F88E
:10884400154D0A37CDE90573079400F08BFC2046DB
:1088540005A9FFF75FF9044630B9554B03A9CDE9E3
:10886400033500F0B1F904469DF80B0000F09EFCBE
:1088740092E7037A002B00F09980837A00F10901D2
:10888400002B00F09180C27AB3788A5C9A423FF45C
:1088940059AF1B06F4780AD524B1032C0CBF00246D
:1088A400032479E701212846FFF716FB74E7012C1E
:1088B4003FF448AF04D3032C3FF444AF03246BE7E5
:1088C4000668FFF718FF3B4B776A059306F1080328
:1088D40080460693B7B9B36FB46A7767C6E91E7367
:1088E4006CB106F1280103C906F1200383E80300F3
:1088F400B76205A94046FFF721F9044600E0346257
:108904000021D0E7D6F88090306A4F4528BF4F4603
:1089140006F130043A46214606F0A9FBB36F3B4406
:10892400F367A9EB07037367B36A00223C44B26799
:108934003467002B34D006F1280999E8030006F1C6
:10894400200787E803001446B262736F306A1BB9CC
:10895400346A002CCDD1D3E7726A316F9A4215D8AC
:1089640006F085FB736A726FF367D21A7267326F0F
:108974001A44326700212846FFF7AEFAB36A7BB186
:1089840099E8030087E80300B462DEE71A4606F0BC
:108994006EFB726F736AB2679B1A7362336A134415
:1089A4003362D5E76378FFDE1B78FCE75B78FAE790
:1089B400D5860200FF7E02001FB503689B8BDB0790
:1089C40011D5037A012B10D9437B00F10C047BB140
:1089D400837BCDE90112E05C01A900230393FFF737
:1089E40099F804B010BD0820FBE700235B78FFDE94
:1089F4001B78FCE70368D86F70470000F7B504687C
:108A0400A38BDB070F4616463AD5256A002D31D1D4
:108A1400616F91420DD3216F384606F028FB636FD6
:108A2400E6679B1B6367236F33442367284603B0C1
:108A3400F0BDC4E90872FFF75EFE134B009304F126
:108A440008030646019369B10A463846216F06F0C9
:108A54000EFB636F626AD21A6262226AC4E91D5312
:108A64001A44226269463046FFF768F8002808BFB6
:108A74009220DCE7A36A2BB9C4E90A129220D6E754
:108A84000820D4E71120D2E7FF7E020000207047BF
:108A94002DE9F04F4B6887B081460C4602925BB9D2
:108AA4000B681B681B683BB98D682DB9C0E900557C
:108AB400284607B0BDE8F08F02F0C6FAE768029BCB
:108AC4009F4228BF1F464FF0000804F1100383465D
:108AD4000197464601250393019B002B2DD0A368E3
:108AE400019A616893429A4628BF924641B352461E
:108AF4000BEB060006F0BBFA00236360A268E36890
:108B04000199A2EB0A02A3EB0A03A1EB0A01A260FA
:108B1400E360019156440ABBB8F1000F38D02268D3
:108B2400126812682260002B30D02368D3B96360C6
:108B34001EB1029BB34288BF0025C9E900B6B7E75E
:108B4400002BDBD0216803984B680BEB0602D3F8AB
:108B540004805346C0474FF00108CFE7002B08BFFD
:108B64000025B9E70DF1180A00234AF8083D2168E9
:108B74004B685B6800221F4650460123B84708B97A
:108B84002061A9E7A3680133A360F0E71D46A3E7CA
:108B9400002BCAD145469FE7084B1A7882420CD075
:108BA400052818BF064A187018BF137805481CBF5B
:108BB40023F002031370FFF751B870474C340020C0
:108BC4006834002070FC020038B505460C4602F0FB
:108BD400EBFAA84205BFD4E90001034B1020C3E916
:108BE400000108BF002038BD6C3400207FB5C38865
:108BF40093421D4628BF154693420E46144624D977
:108C0400802002F05DF9B4FBF0F303FB1040B0FAEE
:108C140080F04009039004A8002300F80D3DCDE93D
:108C2400016500F09FFA01A98020FEF773FF044656
:108C340020B907498020FFF7C7FF04469DF80300C9
:108C440000F0B4FA204604B070BD0020E2E700BF93
:108C5400A4FC02002DE9F04F0B78013B87B00E46CF
:108C64000D2B12D8DFE813F00E00170013001100CB
:108C74002100FC0111001100110011001700E60190
:108C8400EA01FA010320FFF787FF0624E2E1B64870
:108C940000F0D5FB08B90024DCE1B44B01221A60D2
:108CA400BFF36F8FBFF34F8FF5E705230DF10D0071
:108CB400AF4D8DF80C3002F00BFA00232B609DF8B9
:108CC4000D3003F01F02032A00F26D81DFE812F079
:108CD4000400060162017400C3F34116002E6BD137
:108CE400DB099DF80E1000F09A80062917D0082998
:108CF40000F0888000295FD19E4C0222204606F0B5
:108D0400DFF9237843F0010222709B4A127890071E
:108D140044BF43F0030323700222964909E09DF8FF
:108D24001030022B0BD0032B61D0012B44D193497B
:108D340012220DF10D00FFF759FF044639E0BDF88A
:108D44001370092F28BF0927FEF794FE4FF0090876
:108D54000446B146A4BB874C89493A46204606F0EE
:108D640086F92671A4F80280FEF76CFE18B1E37947
:108D740043F02003E371FEF77DFE824BC3E9000458
:108D84009F60BDF81320DA6001A800238DF8043039
:108D940000F0E8F97C498020FEF7D0FE044620B9B3
:108DA4007A498020FFF710FF04469DF8040000F084
:108DB400FDF9062C40F0FF8003A8FEF799FED0E0F1
:108DC400CDF804904FF0000A63680022D3F804B091
:108DD4002146012301A8D84730B9237A1E442368C9
:108DE400D044F6B21C68B5E70AF1010AECE7BDF815
:108DF40011109DF80F0000F0A1F901460028DBD006
:108E0400027896E7624A1278052A03D1594A137008
:108E1400012282E7042ACFD1564B1E70F8E70139AC
:108E24000829C9D801A353F821F000BFA98E020074
:108E3400BD8D02006F8E0200BD8D0200558E0200B2
:108E4400BD8D0200BD8D0200BD8D0200C38E0200E7
:108E54004F4B1B78033B022B01D908240DE0FEF78E
:108E6400E9FE0420FFF798FE0FE0BDF80F30012B58
:108E7400A2D1FEF7E7FD18B90F2402F092F9E9E058
:108E84003D4A137843F0020313702C68002C00F061
:108E9400108102F089F9044600287FF4FCAE02F048
:108EA4003DF9D7E0BDF80F30012B85D1FEF7CAFD9F
:108EB4000028E1D0304A137823F00203E4E7344B6E
:108EC4001B78043B012BC8D89DF80F30002BC6D06B
:108ED400012B3FD1FEF79AFE0520C3E701A99DF8B7
:108EE4001100FEF7CDFD074608B91024C5E703AA13
:108EF4009DF80410FEF7DCFD062804465BD19DF8BE
:108F04000D2012F0600FB8D1214B9DF80410187891
:108F14009DF80E30D60915D073B10A2BADD10528B2
:108F24009BD13846FEF76CFE1249324608700DF1AB
:108F34000D00FFF75BFE14E005288ED10D490B8070
:108F44000222F4E70B2B98D1052886D1BDF80F3007
:108F5400FF2B01D9072490E79DF80F203846FEF730
:108F640001FE044627E000BF743400205C70024018
:108F74006C340020783400206834002090FC020017
:108F840071FC020050340020BCFC0200A4FC02006E
:108F94004C3400209DF81100010706D19DF80D30D6
:108FA40013F0600F0BD0062467E703A9FEF783FDD7
:108FB40006280446F2D0002C3FF467AF5DE79DF825
:108FC4000E203E4B9DF811401B78012A1ED012D36F
:108FD400032AE8D104F00F02072AE4D8BDF80F10E1
:108FE4000029E0D1052B02D0002A7FF436AF2046B9
:108FF40002F02EF849E7052B02D022077FF42DAFAB
:10900400204602F03BF82E49088099E704F00F024D
:10901400072AC8D8BDF80F100029C4D1052B02D0E7
:10902400002A7FF41AAF204602F042F8204602F0EC
:109034001BF82AE70020FFF7AFFD2CE64FF0804332
:10904400D3F8384414F0010401D00220F3E70120DE
:10905400FFF7A2FD204607B0BDE8F08F0120EAE744
:10906400C87803283FF411AE164D2B6823B30022B1
:109074002A6069689847044600287FF4FEAE2B688E
:1090840023B1B378002B7FF406AE08E70E4B1B78B0
:10909400082B0ED10D4B1B681B070AD10C4B1B6808
:1090A40013F0F00F05D10B4B1B6813F0F00F3FF4D6
:1090B400F2AD02F073F8CDE70E24DEE64C34002066
:1090C400783400206C340020E00F00F0E40F00F04E
:1090D400E80F00F0EC0F00F008B1402303600148F2
:1090E400704700BF7834002070B54FF0805286B0CE
:1090F400D2F8A830D2F8A42000926FEA83436FEA32
:10910400934302AE0B4A0C4D9BB20D21304605F041
:109114008AFF40F21A322A800024304606F025F8ED
:10912400844201D306B070BD335D013425F8143098
:10913400F3E700BFC4FC0200B834002040B10428A7
:1091440008D8054B185C30B1044B53F82000704725
:1091540003487047002070474CFD020038FD0200B0
:10916400CEFC020070B5EFF3108672B60C4A946818
:1091740001239CB993600B4B0B4DD3F8801029400D
:109184001160C3F88050D3F8841051604FF0FF325F
:10919400C3F88420047006B962B670BD0370FAE7A0
:1091A400D434002000E100E0FC06FFBD084B9A68BF
:1091B40010B55AB150B9EFF3108172B6054A1C6864
:1091C40014605C685460986001B962B610BD00BF59
:1091D400D434002000E100E01EF0040F1CBFEFF3C4
:1091E40009800AE0EFF308800849094A884201D857
:1091F400904202D88D464FF000006B46854608B574
:10920400044B9847BDE808409D4670470000042081
:1092140000E0032041920200BFF34F8F0549064B43
:10922400CA6802F4E0621343CB60BFF34F8F00BF00
:10923400FDE700BF00ED00E00400FA0510B50446A8
:10924400FDF772FCFDF7C8FA0028FBD12046FFF7B2
:10925400E3FF10BD10B561B1B2FBF3F403FB1424BA
:10926400A4B244B9C0E9001484608281C381204659
:1092740010BD0E20FCE70920FAE737B550E8013F9E
:109284009DB2C48925448489A54228BF2D1B048925
:10929400A54202BFBFF32F8F002207E0C5EA0305F2
:1092A40040E80154002CE9D14FF001028DF803206D
:1092B4000193019B9DF803200B6002F0FF0322B190
:1092C4000B880068184403B030BD1846FBE70A88D1
:1092D4004B889A4209D150E8012FC2EA024240E881
:1092E4000123002BF7D1012070470020704737B5C8
:1092F40050E8023F1FFAA3F5C488A54202BFBFF39A
:109304002F8F00220DE0C48925448489A54228BFFB
:109314002D1BC3EA054540E80254002CE8D14FF068
:1093240001028DF803200193019B9DF803200B603B
:1093340002F0FF0322B14B880068184403B030BD2B
:109344001846FBE70A884B889A4209D150E8022F55
:10935400C2EA224240E80223002BF7D101207047E1
:109364000020704701F01F024B090121914000EBDE
:10937400830000F01DB801F01F0301229A404B093D
:1093840000EB8300D14300F029B84B0901F01F0121
:1093940050F82300C84000F00100704750E8002F47
:1093A4000B4640E8003C9CF0000FF7D11046704794
:1093B40050E8003F43EA010240E8002C9CF0000F13
:1093C400F6D11046704750E8002F02EA010340E846
:1093D400003C9CF0000FF6D11046704750E8003F67
:1093E40003EA010240E8002C9CF0000FF6D110467D
:1093F400704750E8003F03EB010240E8002C9CF06A
:10940400000FF6D11046704750E8003FA3EB01026D
:1094140040E8002C9CF0000FF6D11046704750E84D
:10942400003F8B422CBF5A1A1A4640E8002C9CF08D
:10943400000FF4D1104670470121FFF7B9BF002196
:10944400FFF7C1BF10B590B1D0E9012301689B1AA1
:10945400DBB20A60013BDBB2FF2B026802D10020C1
:10946400107110BD11684C1C14600B70F2E70E20D3
:10947400F7E737B5054602A8002400F8014DFFF7C9
:1094840071FE2A686B68116899420ED9481E1060F3
:1094940011F8014CEB68A98A01FB0434AB6811791B
:1094A4001B1ADBB2994238BF13719DF80700FFF70E
:1094B4007DFE204603B030BD37B5054602A8002323
:1094C40000F8013D0C46FFF74DFE2A681368591C4D
:1094D4001160E968641AA98AB4FBF1F41C709DF860
:1094E4000700FFF763FE03B030BD826810B5044681
:1094F4002AB143690168006998470023A36010BD3D
:109504000EB403B5039929B102AA04AB42F8043D91
:1095140000F06AF802B05DF804EB03B070478268AB
:1095240030B40468551C8560A154D0E901329A42D4
:1095340002D330BCFFF7D9BF30BC70472DE9F84FD8
:109544009946DDE90A431746824688460A460126BB
:10955400BA420FD24E4538BF4E4613F0010B01D12B
:1095640064B900240125B9F1010F1AD909F1FF39B1
:109574007D43F8E7B2FBF7F20136E9E79B070ED526
:10958400B9F1000F0CBF30252025A642EAD2013CD8
:1095940029465046FFF7C3FF002CF6D1E1E720250A
:1095A400F3E7B8FBF5F39F42E2D9DFF83890B8FB54
:1095B400F5F3504619F8031005FB1388FFF7AFFFC6
:1095C400B5FBF7F5002DF2D1BBF1000F02D00CB1C1
:1095D400A64201D3BDE8F88F20215046013CFFF795
:1095E4009EFFF4E75BFD02002DE9F74F0546904628
:1095F4000E46002900F03A8116F8011B002958D0C4
:10960400252940F0D180002702E047F001071646E3
:10961400324612F8013B2D2BF7D0302B04D02B2BE4
:1096240005D147F00407F2E747F00207EFE700240B
:109634002A2B06F101021BD1D8F80030191D1B6832
:10964400C8F800101C44164633782E2B1CD1013662
:109654004FF0000A314611F8012BA2F1300009281D
:1096640014D80A2303FB0A23A3F1300A0E46F1E7B8
:1096740012F8013CA3F130010929E5D80A2101FBC4
:109684000434303C1646D3E74FF0000A324612F851
:10969400011B01F0FB0068281646F8D0692916D092
:1096A40054D8582970D00ED825297DD03378002B72
:1096B400A2D12B7B002B00F0D980284603B0BDE853
:1096C400F04FFFF712BF632968D06429EED1D8F8B0
:1096D4000020D2F80090111D89EAE972C8F8001040
:1096E400A2EBE9724FF0010B092A61DCD34538BFC4
:1096F400D3462CB1B9F1000F01DB790700D5013C49
:10970400BA0702D5BAF1000F04D0FB0702D4002C2B
:1097140054D10024B9F1000F58DAC9F100092D2100
:109724002846FFF7FCFE07F00302022A05D1BAF12E
:10973400000F02D1002C4DD10024CDE9004753463F
:109744000A2249462846FFF7F9FEAFE7732954D0A9
:1097540016D87029AAD1D8F800301A1DC8F80020EC
:10976400302128461C68FFF7DAFE78212846FFF7E7
:10977400D6FE00220823CDE9003221461022E1E77B
:1097840075292FD0782991D1D8F800100A1DC8F86E
:109794000020CDE90047534610222CE0D8F80030D1
:1097A4001A1D1978C8F800202846FFF7B8FE7DE78F
:1097B4000A230BF1010B92FBF3F295E7A345A9D21F
:1097C40020212846013CFFF7AAFEA0E77807AAD586
:1097D4002B21A5E7A345B0D230212846013CFFF751
:1097E4009EFEA7E7D8F80010CDE900470A1DC8F887
:1097F400002053460A220968A4E7D8F800301A1D4D
:10980400C8F80020F907D3F8009012D54F46A7EB0B
:10981400090B17F8011B41B9A345BFF447AF202139
:109824002846013CFFF77BFEF6E72846FFF777FE64
:10983400EDE7B9F1000F17D0484605F096FC07464E
:10984400BC4200D954B909F1FF3919F8011F0029A4
:109854003FF42CAF2846FFF762FEF6E720212846A6
:10986400013CFFF75CFEEBE74F46E9E703B0BDE8D8
:10987400F08F00002DE9F04108B10368C3B90E4E22
:109884000E4B14229B1B0024B3FBF2F3374602FB5E
:1098940003F5A54201D1002008E03B5930190BB96A
:1098A4001434F6E7DB6998470028F9D0BDE8F08165
:1098B400DB69BDE8F0411847F02A0020F02A0020B7
:1098C40029DF704728DF704770B503689D6886B04C
:1098D40004460E466DB114220021684605F0F0FBE3
:1098E400A3680593237901962BB1012B0DD068460B
:1098F400A84706B070BD01238DF800302369029398
:10990400E368039363690493F1E702238DF800305D
:10991400E3681B030293F5E7034B187A0122B0FABC
:1099240080F05A7440097047E034002070B5244D2B
:10993400244E2B7A2C463BB923492448FFF7D7FC05
:10994400306008B9686070BD0223237233681A79E5
:1099540072B1012A24D018460321FFF7B5FF002372
:109964002372636018491948BDE87040FFF7EABCE8
:10997400D3E90520121AB2F5805F28BF4FF4805254
:10998400D3E903159208012A014438BF012228446F
:10999400FFF796FF50B11128DDD101232372D2E7DE
:1099A400D3E903021044FFF78DFFF3E7237C002B78
:1099B400C9D10146BDE87040022000F009B800BFDB
:1099C400E0340020F8340020F4340020382B002048
:1099D40038B5831E012B45D8234C237A002B41D064
:1099E400022B09D1032830D0204B1B680022E260EF
:1099F4001A793AB1012A22D0637C7BBBBDE8384096
:109A0400FFF794BFD3E905128D1AB5F5805F94BFB3
:109A1400521902F580529A619142EDD102284FF019
:109A2400000308BF19462372104B18BF0D21186894
:109A3400FFF74AFF0E490F48FFF784FCDCE71A6979
:109A440001321A615B699A42E7E7E3680133082B44
:109A540001D8E360D0E70023E360DFE7BDE83840E6
:109A640005F054B838BD00BFE0340020F8340020BD
:109A7400F4340020382B002000F0FD03012B08D122
:109A8400044B00225A74421E504250411874FFF78E
:109A94004DBF7047E0340020FFF7D4BCF8B54679D9
:109AA4000146721E0546002393422D6803D3002409
:109AB400A64202D8F8BD0133F6E70F682846FFF73F
:109AC400FBFC01343946F3E72DE9F843868ACD1CC3
:109AD4000746FFF7CEFC043E35440446B5FBF6F5D5
:109AE400F0B14FF48073EDB28380C680013D07600E
:109AF40081464FF00008A84512D23846FFF7B9FC5A
:109B0400064648B163790133637108F10108C9F865
:109B1400000007608146EEE72046FFF7BFFF3446AA
:109B24002046BDE8F88301210430FFF762BC10B57C
:109B3400012104460430FFF767FC10F0FF0F04D145
:109B44002046BDE81040FFF7A9BF10BD2DE9F8433A
:109B5400C7880546181D8846B0FBF7F4164607FB70
:109B640014003CB9A7EB0009B14528BFB14626B99A
:109B7400BDE8F8832D68013CF3E70430A6EB090641
:109B84004A4608EB0401284405F071FAB7424C44F4
:109B94002D68B9464FF0000028BFB146E7E72DE92C
:109BA400F843C7888846191D0546B1FBF7F41646E5
:109BB40007FB14113CB9A7EB0109B14528BFB14615
:109BC40026B9BDE8F8832D68013CF3E70431294444
:109BD400A6EB09064A4608EB040005F048FAB7422A
:109BE4004C442D68B9464FF0000128BFB146E7E761
:109BF4000B684A684360934208BF0023016008BFB2
:109C040043607047436843B10268916852680B44EB
:109C14009342436004BF0023436070470D4930B54D
:109C2400A1F594720225914201D800200EE08B1A0E
:109C3400DB1093FBF5F302EBC30452F83330834299
:109C440005D802D204F10802EDE7606830BD214670
:109C5400E9E700BFCCFE020008B5FFF7DFFF024BC7
:109C6400002808BF184608BD8FFD0200054B1B687D
:109C7400082B01BF044B1868B0FA80F0400918BFE4
:109C840000207047300100103401001008B54FF077
:109C940080430022C3F80C21C3F81021C3F83825EF
:109CA4004FF0805203F54043D2F80414C3F8201552
:109CB400D2F80814C3F82415D2F80C14C3F82815E4
:109CC400D2F81014C3F82C15D2F81414C3F83015B4
:109CD400D2F81814C3F83415D2F81C14C3F840157C
:109CE400D2F82014C3F84415D2F82414C3F8481544
:109CF400D2F82814C3F84C15D2F82C14C3F8501514
:109D0400D2F83014C3F85415D2F83414C3F86015DB
:109D1400D2F83814C3F86415D2F83C14C3F86815A3
:109D2400D2F84014C3F86C15D2F84424C3F8702553
:109D3400FFF79CFF10B1384B384A1A60FFF796FFC3
:109D440018B1374BFB22C3F81825FFF78FFF48B132
:109D54003449354B0A681B6822F00F0203F00F03E5
:109D640013430B60FFF782FF18B1304B4FF40072BE
:109D74001A604FF08043D3F80024D20744BF6FF039
:109D84000102C3F800242A4AD2F8883043F470034D
:109D9400C2F88830BFF34F8FBFF36F8F4FF010239B
:109DA400D3F80022002A03DBD3F80432002B2FDA85
:109DB400204B0122C3F80425D3F80024002AFBD049
:109DC4004FF010221221C2F80012D3F80024002A06
:109DD400FBD04FF010231222C3F80422154B1A466D
:109DE400D3F800140029FBD00021C3F80415D2F8DD
:109DF4000034002BFBD0BFF34F8F0D490E4BCA68C4
:109E040002F4E0621343CB60BFF34F8F00BFFDE762
:109E14000A4B0B4A1A6008BD8C5600404881030067
:109E240000F00040E40E004058020010409602404A
:109E340000ED00E000E001400400FA054C2B002096
:109E44000090D003074B1B5C1F2B8ABF064A4FF0C0
:109E5400A04203F01F03D2F80405D840C04300F029
:109E6400010070478602030000030050074B1B5C8F
:109E74001F2B86BF03F01F0305494FF0A0410122A9
:109E840002FA03F3C1F80C35704700BF86020300E1
:109E940000030050074B1B5C1F2B86BF03F01F03FE
:109EA40005494FF0A041012202FA03F3C1F8083535
:109EB400704700BF860203000003005008B500206D
:109EC400FFF7E8FF0120FFF7E5FF0220FFF7E2FFBD
:109ED4000320BDE80840FFF7DDBF08B50020FFF709
:109EE400C5FF0120FFF7C2FF0220FFF7BFFF0320D9
:109EF400BDE80840FFF7BABF0A4B185C1F288ABFA9
:109F0400094B4FF0A04300F01F00D3F804250121B2
:109F1400814021EA02000A40C3F80805C3F80C2571
:109F2400704700BF8602030000030050263818BFA4
:109F34004FF0FF307047262070470000C10710B56E
:109F4400044642D54FF08043D3F84036DA072ED585
:109F54004FF01023D3F8043303F00703072B26D163
:109F64001D4B0122C3F80425D3F80024002AFBD09A
:109F74004FF01021D1F8042322F0070242F004022A
:109F8400C1F804230022C3F80425134AD2F800348C
:109F9400002BFBD0BFF34F8F1049114BCA6802F45A
:109FA400E0621343CB60BFF34F8F00BFFDE74FF078
:109FB400A0420C490323C2F81837C2F82037C1F86D
:109FC4002437C2F83037FFF779FFA30742BF054BA8
:109FD4000C22C3F8182710BD00E0014000ED00E09A
:109FE4000400FA050003005042DF704743DF704766
:109FF40038B5084C04F108030546002818BF1C4670
:10A0040023682BB11A6822605B6828469847F7E7F3
:10A0140038BD00BF0435002020B9054B01225A7019
:10A02400FFF7E6BF012802D1014A9070F8E77047B4
:10A03400FC34002020B9034B01225A70FFF7D8BF2B
:10A04400704700BFFC34002038B50B4C237883B92B
:10A054000A486360A3602361E36001F059FB05468D
:10A0640004F064FD08B901F061FB01232370284664
:10A0740038BD8525FBE700BFFC3400201DA002008D
:10A0840037B502A80023094C00F8013DFFF76AF830
:10A09400E368013BE360E56815B901F05FFBA57077
:10A0A4009DF80700FFF782F803B030BDFC340020B0
:10A0B400012813B509D003D303281BD002B010BD67
:10A0C4000F4B0122C3F88020F8E702A800230D4CAF
:10A0D40000F8013DFFF746F823780BB9FFF7B4FF0A
:10A0E400E3689DF807000133E3600123A370FFF7E1
:10A0F4005DF8E3E701F01AFBFFF7C2FFDEE700BFFC
:10A1040000E100E0FC34002037B51B4C63780546C1
:10A1140003F0FF029BB110B143680020984700236D
:10A124000DF107008DF80730FFF71CF863689DF800
:10A13400070001336360FFF739F803B030BD0DF158
:10A1440007008DF80720FFF70DF825B1A268134624
:10A1540053B92A60A5606368002BE7D104F0E6FCDC
:10A1640030B1FFF741FFE1E79D42F4D01B68EFE710
:10A1740001F000FBDAE700BFFC34002073B502A84D
:10A1840000230D4C00F8013DFEF7ECFF6368013B32
:10A194006360666836B904F0C9FC054640B1FFF750
:10A1A40025FF66709DF80700FFF700F802B070BD48
:10A1B40001F0ECFA6570F5E7FC34002036DF7047F7
:10A1C4004DDF70474EDF70474FDF704750DF7047F9
:10A1D40008B50346FFF7F6FF40B91846FFF7F0FF4E
:10A1E40020B91846BDE80840FFF7EEBF08BD0128B6
:10A1F40010B5044602D101F047FD804701F04AFD45
:10A20400034668B10A2C07D00B2C07D0092C07D1C0
:10A214000220BDE8104018470020FAE70120F8E7C3
:10A2240010BD0000012813B5044603D0032819D03B
:10A2340002B010BD02A8002300F8013DFEF792FF12
:10A2440001F022FD10B12046FFF7B8FF9DF807008A
:10A25400FEF7ACFF01F01EFD0028E9D00120FFF756
:10A26400B7FFE5E70D4BE02283F800230122C3F892
:10A2740080211A6001F008FD20B14FF080430422D0
:10A28400C3F8042301F006FD0028D1D04FF0804329
:10A294004FF46072C3F80423CAE700BF00E100E092
:10A2A40010B5044604F042FC50B90648002C18BF0F
:10A2B400204601F0F5FC10B9034B01221A7010BDC1
:10A2C4000820FCE7900203001035002013B502A813
:10A2D400002400F8014DFEF745FF04F027FC50B1BF
:10A2E4002046FFF775FF9DF80700FEF75FFF01F0BA
:10A2F40013FD02B010BD01F008FDF4E713B50446E8
:10A30400FFF7E4FF204601F0EFFC04F00FFC0446E5
:10A31400A0B10120FFF75CFF044660B901A8FFF774
:10A3240055FF044638B9019BDB0704D501F0B2FCA4
:10A33400034620469847204602B010BD01F0DEFCDB
:10A34400F9E700001FB503788DF8003043680193E6
:10A35400037A8DF80830C3680393054A054B6846B1
:10A3640053F8213052F82110984705B05DF804FBEA
:10A37400143500201C3500201FB503788DF80030FB
:10A384004368019383688DF80830C3680393054AD2
:10A39400054B684653F8213052F82110984705B010
:10A3A4005DF804FB143500201C350020F0B5194B72
:10A3B4000678DFF870E043F82620174B94460A69C4
:10A3C40043F826204B7F0EF806300C4607460FCC88
:10A3D40089B06D460FC594E80F0085E80F001EF89C
:10A3E4000630049653B1BCF1000F0C4A694608BF0D
:10A3F4000022381D02F026F809B0F0BDBCF1000FB0
:10A40400074A694608BF002207F10C0001F000FE6C
:10A41400F2E700BF1C3500201435002049A30200D8
:10A424007DA302002435002000F1804000F51C309B
:10A4340001230360BFF36F8FBFF34F8F704700009A
:10A44400064A10F0800F00F00F0314BFD2F8100575
:10A45400D2F81405D84000F00100704700700240A3
:10A46400064B1B78082B07D1054B1B6813F00F0F05
:10A474000CBF01200020704700207047E00F00F05F
:10A48400E40F00F008B5FFF7EBFF58B1074B1B686A
:10A4940013F0F00F07D1064B1B6813F0F00F0CBF3D
:10A4A4000120002008BD0020FCE700BFE80F00F0F9
:10A4B400EC0F00F008B5FFF7D3FF60B1074B1B6842
:10A4C40003F0F003102B07D1054B1B6813F0F00FBA
:10A4D4000CBF0120002008BD0020FCE7E80F00F0BD
:10A4E400EC0F00F030B54C680D689C4229BFC0E900
:10A4F40000530021E41AED1832BFC0E900514C604A
:10A504000D60934203D1201C18BF012030BD0020F0
:10A51400FCE74B6810B59A420C6828BF1A46C0E99C
:10A524000042981A0B684860134400300B6018BF4F
:10A53400012010BD30B54C680B68A24228BF2246EA
:10A54400002A14BF1D460025A4EB02041344C0E9ED
:10A5540000524C600B6014BF0120002030BD00008D
:10A56400054B10F0800FA3F1900208BF134600F0D2
:10A574000F0003EB001070479C36002010F0800F92
:10A5840014BF0023102300F00F001844704700008C
:10A59400024A00231360024A137070471C7C024075
:10A5A4002735002007B5084A00231370074A019392
:10A5B40002A81370012300F8043D054B1B6898475B
:10A5C40003B05DF804FB00BF2635002030370020BF
:10A5D4002C3700207047000007B500238DF80430A5
:10A5E400084B094AD3F82035ADF80630136843F018
:10A5F40001231360054B01A81B68984703B05DF85D
:10A6040004FB00BF00700240083600202C370020F5
:10A61400F8B54D680B4F954228BF15460C460646C3
:10A624002A460968384604F022FD60682368401B06
:10A63400C6E9007560601D440030256018BF012024
:10A64400F8BD00BF38370020F8B54C68944228BFE5
:10A65400144606460D468CB1094F09682246384611
:10A6640004F005FD37606B6874601B1B6B602B681E
:10A67400201C23442B6018BF0120F8BD0460F2E7BE
:10A684003837002013B5124C0122236802FA01F175
:10A694000B4323600F4B1B68194003060DD551B9BA
:10A6A40006238DF804308DF806008DF807100A4B48
:10A6B40001A81B68984702B010BD0029FBD10623EE
:10A6C4008DF804308DF806008DF80720EFE700BF01
:10A6D40008360020983500202C37002008B5054B9B
:10A6E4001A781046FFF74AFFBDE8084001461046B5
:10A6F400FFF7C8BF3037002008B50146FFF748FF11
:10A70400FFF72EFF837B032B0AD10846FFF736FFA2
:10A7140001218140C9430448BDE80840FEF75EBEFC
:10A724000368002BF1D008BD983500208720FFF77F
:10A73400E3BF8620FFF7E0BF8520FFF7DDBF84205D
:10A74400FFF7DABF8320FFF7D7BF8220FFF7D4BF1C
:10A754008120FFF7D1BF000013B5FFF719FF114B9C
:10A7640093F81E21032A06D16FF480710E48FEF778
:10A7740035FE02B010BDD3F81041002CF9D16FF4AE
:10A7840080710948FEF72AFE06238DF804308823D9
:10A794008DF80630054B8DF807401B6801A89847D3
:10A7A400E7E700BF0C360020983500202C37002046
:10A7B40008B5FFF7EDFE084B93F89E20032A06D157
:10A7C4006FF001010548BDE80840FEF707BED3F865
:10A7D4009030002BF4D008BD0C36002098350020B2
:10A7E40013B5FFF7D5FE0D4B93F88E20032A13D033
:10A7F400D3F8804084B96FF080710948FEF7EEFD0C
:10A8040006238DF8043008238DF80630054B8DF8A7
:10A8140007401B6801A8984702B010BD0C36002001
:10A82400983500202C370020204B13B5D3F8004472
:10A83400C3F80044BFF36F8FBFF34F8FBFF36F8F25
:10A84400BFF34F8FE1050BD5194B01221A7002A8F3
:10A8540000230193022300F8043D164B1B6898471C
:10A86400A2050AD5124A002302A8019313700323F8
:10A8740000F8043D0F4B1B689847630513D50C4B38
:10A884001A7882B100221A70084B0121C3F8081506
:10A894005820FFF7C9FD02A80423019200F8043DE3
:10A8A400044B1B68984702B010BD00BF0070024003
:10A8B400263500202C3700202DE9F04F714B87B04E
:10A8C4001A780193002A40F08580DFF8C0B16E4BFE
:10A8D4001D686E4B19680D407CD095FAA5F5B5FA44
:10A8E40085F55FFA85F80F2DC6BFA8F110085FFA49
:10A8F40088F848F080084046FFF732FE4FFA88FA9D
:10A90400BAF1000F064608F00F04828965DAD0E92F
:10A91400003104A8984700B930605D4B82221A6068
:10A92400019B059A049801211970A940B368DBF8CA
:10A934000050134425EA0101BAF1000FB360CBF8CB
:10A944000010544B77DA072C9BBF142101FB04330E
:10A95400C3F8A006C3F800068CBFC3F8A426C3F846
:10A964000426FFF78FFDA30024B266004A4A4B4930
:10A97400002871D0BAF1000FB4BF92468A46484C01
:10A98400484FB4BF04252825B244474E1D4444F023
:10A9940001044FF00008C6F80080BFF36F8FBFF3C7
:10A9A4004F8F2846FFF740FD8020A0473368002BD7
:10A9B400F1D04FF4F060A0473B689B064AD5402095
:10A9C400A047BAF8003003F1804303F51C331B6839
:10A9D400002BDED007B0BDE8F08F072C2D4B25D916
:10A9E400D3F8C09419F4803F18BF4FF000094B46C8
:10A9F4007168376804A8B847049B002B8BD0059B6B
:10AA04004B4588D201210224A940B473C9431E488E
:10AA1400FEF7E4FC06238DF80C30244B8DF80E80F1
:10AA24008DF80F401B6803A8984750E704F594710C
:10AA340053F82190DBE7072C9BBF142101FB04335F
:10AA4400C3F8A007C3F800078CBFC3F8A427C3F852
:10AA5400042786E78020AEE7BAF1000FACBF2820B8
:10AA640004201844FFF7E0FC12EA2A0A38BF8A4699
:10AA74003AF8143003F1804303F51C331A68002AB2
:10AA8400FCD0A7E7273500209835002008360020A1
:10AA94001C7C024000700240B0020300CC020300A0
:10AAA400A002030074740240047102402C37002099
:10AAB40038B5194BD3F86C44C3F86C44BFF36F8FAB
:10AAC400BFF34F8FBFF36F8FBFF34F8FFFF7DAFCE6
:10AAD40038B1124A136823F0011103F001130C4337
:10AAE400136001251CB9BDE83840FFF7E5BE94FAB0
:10AAF400A4F3B3FA83F30F2BD9B2C8BFA1F11000AA
:10AB040005FA03F3CCBFC0B241F0800024EA030489
:10AB1400FFF7B8FDE6E700BF0070024034370020BD
:10AB240037B50446FFF734FDFFF71AFD837B032B8B
:10AB34000CD12046FFF722FD01218140C9430F4873
:10AB4400FEF74CFCFFF7B8FE03B030BD0568002DDE
:10AB5400F8D12046FFF712FD01218140C94307487F
:10AB6400FEF73CFC06238DF80430054B8DF80640B7
:10AB74008DF807501B6801A89847E3E79835002033
:10AB84002C3700200720FFF7CBBF0620FFF7C8BFF4
:10AB94000520FFF7C5BF0420FFF7C2BF0320FFF75E
:10ABA400BFBF0220FFF7BCBF0120FFF7B9BF000001
:10ABB400054B1A78012A01BF044A0020106018705E
:10ABC40018BF0820704700BF283500202C3700200C
:10ABD4004E4B4FF4006273B5C3F80024BFF36F8F7C
:10ABE400BFF34F8FFFF766FC494CA0B100230DF172
:10ABF40007008DF80730FEF7B5FA2168454B0322AC
:10AC040000297AD149F2753121601A6021609DF8DA
:10AC14000700FEF7CBFA00230DF107008DF807308B
:10AC2400FEF7A0FA22683C4DC023002A67D149F2FE
:10AC3400753222602B6022609DF80700FEF7B6FA99
:10AC4400324B0122C3F80025BFF36F8FBFF34F8F40
:10AC5400D3F800241205FBD54FF40062C3F8002496
:10AC6400BFF36F8FBFF34F8F00260DF107008DF8F0
:10AC74000760FEF777FA2268002A42D149F2753359
:10AC840023602A6023609DF80700FEF78FFAFFF720
:10AC940011FC90B100250DF107008DF80750FEF767
:10ACA40061FA21681B4B71BB49F27532226019604D
:10ACB40022609DF80700FEF779FA184B40F2E37220
:10ACC4001A60043340221A60BFF36F8FBFF34F8FB3
:10ACD400A3F604038022C3F81C25114B40F2FF1293
:10ACE4001A60104B00211960FFF752FC0E4B1970CB
:10ACF4000E4B02221A7002B070BD1A6087E72B60F7
:10AD04009AE72E60BFE71D60D3E700BF00700240E2
:10AD140000EC064014ED064014EC064000780240B6
:10AD240008360020983500203037002028350020D0
:10AD340008B5104B00221A70D0B9FFF7A3FB0E4BD5
:10AD44000E4A002814BF184610460D4B0D4AE02148
:10AD5400C2F8040383F827138021C3F884115960CF
:10AD64000123C2F80435BFF36F8FBFF34F8F08BDC3
:10AD74000148EAE7263500200714E0010714C00162
:10AD840000E100E000700240024B1878003018BF68
:10AD94000120704728350020034B1878012894BF00
:10ADA40000200120704700BF2835002037B502A8D5
:10ADB400002500F8015DFEF7D5F9114B1B7803F06F
:10ADC400FF0493B10F4AD2F82C35BBB10E4BC2F835
:10ADD4002C55186802F58F2202F21442C02158B98A
:10ADE40049F275301860116018609DF80700FEF78D
:10ADF400DDF9204603B030BD1160F6E71C46F4E7E8
:10AE0400263500200070024000EC0640024B034A45
:10AE1400C3F80823704700BF007002400414800187
:10AE2400024B034AC3F80423704700BF007002407A
:10AE34000414800108B5FFF793FB818108BD00006D
:10AE440070B5002833D01C4B1C7894BB1B4A10608F
:10AE540001221A70264664F07F05082CEDB20CBF5F
:10AE64004FF4007140212846FFF7E4FF2846FFF71E
:10AE740077FB0134092C867306608660EBD10024CD
:10AE8400402125462046FFF7D5FF2046FFF768FB03
:10AE94000134E4B2092C85730560856001D100207A
:10AEA40070BD082C0CBF4FF400714021EAE7072065
:10AEB400F6E70820F4E700BF283500202C370020EF
:10AEC40008B5FFF74DFB808908BDFFF7B9BA00004C
:10AED4002DE9F3410C460746FFF750FB064602A84E
:10AEE400002300F8013DFEF73DF917F00F0103D1EF
:10AEF400284B1B78BB4249D1274A284B12681D684E
:10AF0400D243012092B200FA06F62A43324298460E
:10AF14003ED13846FFF724FB0C233A06844603FB54
:10AF240001F32FD51E4A2168134401F06041A26841
:10AF3400B1F1005F02F001021FD1E2B9194ACCF865
:10AF4400002094E8070083E80700CCF80430164B8F
:10AF5400002435438022CCF808408CF80E40C8F811
:10AF64000050C3F804219DF80700FEF71FF920469E
:10AF740002B0BDE8F0810D4AE1E70AB90C4ADEE708
:10AF84000C4ADCE70C4A13440C4AD8E71024EAE7DD
:10AF94001124E8E7303700200836002098350020D7
:10AFA4009C35002017A5020000E100E039A502004D
:10AFB40015A602004DA602002C350020E9A40200CB
:10AFC4002DE9F34207468946FFF7D8FA044602A85A
:10AFD400002300F8013DFEF7C5F83B0703D1164BEB
:10AFE4001B78BB4224D1154B15491B680E68DB4303
:10AFF40001259BB2A540334313EA05041AD1384610
:10B00400FFF7AEFAD9F800300360D9F80430436092
:10B014000C4B84603543802284730D60C3F8042193
:10B024009DF80700FEF7C2F8204602B0BDE8F082A2
:10B034001024F5E71124F3E7303700200836002008
:10B044009835002000E100E00048704738370020C0
:10B05400044B40F48070C3F81805BFF36F8FBFF33F
:10B064004F8F704700700240034BC3F81805BFF3BD
:10B074006F8FBFF34F8F70470070024000F00F03D3
:10B08400072B11D810F0800F084A0BBF03F5887303
:10B0940003F5847302EB830352F8230008BF586856
:10B0A400431E5842584170470020704700700240C8
:10B0B400064BC3F80C05BFF34F8F40F48070C3F800
:10B0C4000C05BFF36F8FBFF34F8F704700700240C2
:10B0D40010B508220021044603F0F2FF0E4BD3F80A
:10B0E40080242270D3F884246270D3F88824D3F89F
:10B0F4008C1442EA01226280D3F89024D3F8941489
:10B1040042EA0122A280D3F89824D3F89C3442EA7C
:10B114000323E38010BD00BF0070024008B5FFF7B1
:10B12400B1F958B1EFF3108272B64C20FFF77CF9F5
:10B134004C20FFF779F982F3108808BD4C20BDE854
:10B144000840FFF771B9000013B5FFF721FA104B5F
:10B154009A7B032A06D16FF480310E48FEF73EF93C
:10B1640002B010BD1C6884B96FF480310948FEF741
:10B1740035F906238DF80430074B8DF806408DF819
:10B1840007401B6801A89847EAE7FFF7C7FFE7E70E
:10B194000C360020983500202C3700205020FFF773
:10B1A40043B95420FFF740B9014B1878704700BFEA
:10B1B40030370020F7B50446FFF764F90746204608
:10B1C400FFF7DCF901258540ED4304F00F04174E29
:10B1D400AFB100270DF107008DF80770FDF7C2FF2E
:10B1E4003068134B6400284004F2C57430601C605E
:10B1F4005F609DF80700FDF7D9FF03B0F0BD0DF1C6
:10B2040007008DF80770FDF7ADFF3068072C00EAE2
:10B2140005003060EDD804F59474064B43F82470AF
:10B22400BFF36F8FBFF34F8FE3E700BF08360020F3
:10B234000078024000700240F7B5044602A80026D8
:10B2440000F8056DFDF78EFF2046FFF789F90546E6
:10B254002046FFF793F9012314F0800F03FA00F05E
:10B264001A4A17D1136830EA03010AD02046FFF7BF
:10B27400A1FF0323AB739DF80300FDF797FF03B011
:10B28400F0BDC043034029601360114A136818409D
:10B294001060EEE70E4F11683B6861EA030C1CEA8C
:10B2A400000FE8D021EA000118430323AB738DF8A3
:10B2B4000730084B1160062238602E608DF8042098
:10B2C4008DF806401B6801A89847D4E798350020FC
:10B2D400083600202C370020FFF7AEBFF7B5174B18
:10B2E400174CD3F880542368164EDA43164B37783C
:10B2F4001B6892B238461A43FFF740F9012303FA58
:10B3040000F0104202D03846FFF796FF6FF00111AB
:10B3140005F080050C483570FEF760F8236843F0AB
:10B324000103236002A800230193052300F8043DD0
:10B33400064B1B68984703B0F0BD00BF0070024085
:10B344000836002030370020983500202C370020A4
:10B35400554B2DE9F041D3F80453002229461646F3
:10B36400012400297CD1FFF78DF8002869D04F4BC8
:10B374001B78002B65D1960263D54D494C4E40F2A3
:10B38400A9730B604B4B1C6814F0FF041CBF1868B6
:10B39400044040F2AA700860186810F0FF001CBF57
:10B3A4001968084040F2AB713160196811F0FF016F
:10B3B400B4461CBF1E68314040F2AC76CCF8006045
:10B3C4001E6834403C4E08D037682743376040F24B
:10B3D400A977CCF800701C601C68354F40F2AD743E
:10B3E4003C601C68204008D0346844EA004434605F
:10B3F40040F2AA743C60186018682D4840F2AE749C
:10B404000460186801400DD0CC0748BF42F4000224
:10B41400C806274840F2AB74046019601B6848BF33
:10B4240042F00102336833F001111CBF05F0807053
:10B43400024313F0011F04D06B0544BF316042F492
:10B4440080621E4F02F4000622F400044FF001084B
:10B45400E4B9FFF731FA2EB3BDE8F041FFF73EBF80
:10B4640091FAA1F31648B3FA83F39F0038440768AE
:10B474003FB10660BFF36F8FBFF34F8F04FA03F041
:10B48400024304FA03F321EA03016AE794FAA4F5F8
:10B49400B5FA85F557F8253008FA05F5984724EAF2
:10B4A4000504D5E7BDE8F08100700240273500208F
:10B4B400007802400478024034370020E0020300A0
:10B4C40000710240F8B5114E114A34681268240C18
:10B4D4002404144301271CB940F2FF133360F8BD60
:10B4E40094FAA4F5B5FA85F5E8B20F2DC6BF103865
:10B4F400C0B240F0800000F00F03072B01D8FFF723
:10B504009BFE07FA05F524EA0504E4E70836002063
:10B514009835002010B50B4C63681B0610D5FFF757
:10B52400D1FF094B0022C3F80425BFF36F8FBFF38B
:10B534004F8F8022C4F884204FF0FF32C3F80823D1
:10B5440010BD00BF00E100E00070024008B5FFF745
:10B55400E1FF094BD3F80423C3F808230022C3F8FE
:10B564000025BFF36F8FBFF34F8FFFF711F8034B25
:10B5740001221A7008BD00BF007002402835002067
:10B5840013B502A8002300F8013DFDF7EBFD164BAF
:10B594001B7803F0FF043BB900249DF80700FDF776
:10B5A40005FE204602B010BDFFF78CFF0F49D1F80D
:10B5B400003413F40073EFD10122C1F82C25D1F823
:10B5C400002412F4007202D0C1F82C35E4E7084BD1
:10B5D4000849186828B949F275321A6008601A6077
:10B5E400DBE70A60D9E700BF26350020007002407F
:10B5F40000EC064014EC064010B50446FFF71CFEB0
:10B60400134A04F00F0064B2002C4FF00103B4BFDE
:10B61400D2F81015D2F8141503FA00F36FEA0303F5
:10B62400B5BF0B400B40C2F81035C2F81435BFF358
:10B634006F8FBFF34F8F074B074A33EA240428BFA9
:10B6440014460123225C9340014AC2F8083310BD1A
:10B6540000700240C2020300A6020300F7B5234BA8
:10B66400234A244D47B233EA270328BF134600F088
:10B674000F0401211B5D01FA03F3C5F804330646E8
:10B68400FEF7DEFE78BB002FB4BFD5F81035D5F831
:10B69400143501FA04F1B5BF19431943C5F810155F
:10B6A400C5F81415BFF36F8FBFF34F8F013C062C01
:10B6B40019D8002F17DB02A8002300F8013DFDF77D
:10B6C40051FD3046FFF776FD3046FEF757FF0A4A34
:10B6D400012303FA00F0136823EA00039DF807002E
:10B6E4001360FDF763FD03B0F0BD00BFC2020300A9
:10B6F400A6020300007002409835002000F180404B
:10B70400002382B0036003680193019B02B0704779
:10B71400054A13792BB90121106011715371184630
:10B7240070478520704700BF78370020094B1A689E
:10B73400D20706D4E02283F800230122C3F8802133
:10B744001A604FF080420123C2F81835024A137080
:10B75400704700BF00E100E080370020044B012265
:10B764001A604FF08042D2F81834DB03FBD47047E0
:10B774000C00004008B54FF48070FFF7BFFF4FF096
:10B7840080430122C3F804231A6008BD074B012239
:10B794001A604FF08042D2F80C3403F00113B3F175
:10B7A400011FF8D0024B00225A7170470400004078
:10B7B40078370020124B1B6810B573B14FF48070BA
:10B7C400FFF79CFF4FF080430122C3F808230D4B81
:10B7D400587910B95A711B6898470B4B1B6873B1A1
:10B7E4004FF48270FFF78AFF4FF080430222C3F8C0
:10B7F4000823044B01201B68BDE81040184710BD06
:10B8040000010040783700200401004000F180402E
:10B8140000F5C040002382B0036003680193019BDC
:10B8240002B0704703681F2B83BF03F01F0303603C
:10B8340001484FF0A04070470003005007B502AB29
:10B8440043F8040D1846FFF7EDFF019B00EB83005E
:10B85400D0F8003723F44033C0F80037D0F800376D
:10B8640043EA0141C0F8001703B05DF804FB00008F
:10B87400054B4FF0FF32072843F8202084BF1B18E4
:10B8840083F85820704700BF8437002010B5174C48
:10B8940094F86A3043BBFF21E2180133302B82F85D
:10B8A4003010F9D10021C8B2FFF7E2FF01310C29B1
:10B8B400F9D1062200210E4803F002FC0D4BE022D0
:10B8C40083F806234022C3F880214FF4BE701A6027
:10B8D400FFF79CFF084B4FF00042C3F804230123F9
:10B8E40084F86A30002010BD0820FCE7843700206B
:10B8F400E837002000E100E000600040034B93F8CB
:10B904006A00003018BF0120704700BF8437002050
:10B91400F7B5404F3B18044693F93030002B94465A
:10B9240075DA8B78C3F34003002B15BF0025082577
:10B9340008200C20854202D1042003B0F0BD57F842
:10B94400252001324FEA850649D1381947F825C028
:10B9540080F8305013B97B1983F858408B785A0714
:10B964001BD4D8073DD502A840F8084DFFF75AFF6D
:10B97400009B00EB8300D0F8003723F00203C0F8EB
:10B9840000372548E20804F0070C012303FA0CF3FE
:10B9940010F802C043EA0C038354887891F800C07D
:10B9A40010F002002AD006F1804303F5C0432402BC
:10B9B400D3F8102522F44F3222F44072C3F8102534
:10B9C4004FEA0C4CD3F8102504F47C540CF4403C9E
:10B9D40044EA0C041443C3F810450020ADE70135D4
:10B9E400A8E702A84A7840F8044DFFF71BFF019B23
:10B9F40003F5E073920040F82320C2E7083D3D447C
:10BA040095F8604044EA8C1C85F860C095E70820EE
:10BA140093E700BF84370020E837002073B5224C39
:10BA24002518064695F93020072A1ADD224492F893
:10BA340058309B09032B10D102A840F8046DFFF77E
:10BA4400F1FE019AD0F81035D340DB0707D4022168
:10BA54003046FFF7F3FE02B070BD012BF7D003218F
:10BA6400F6E7D3B2072BF6D8930003F1804303F52E
:10BA7400C043D3F8100540F00100C3F8100502F1EB
:10BA84004000800080B2FFF7C1FE0029E3D095F9A1
:10BA9400303054F82330002BDDD0012303FA02F2B6
:10BAA400024BC3F80423D6E784370020006000402B
:10BAB40007B502AB43F8040D1846FFF7B3FE019B2C
:10BAC400D0F81005D84000F0010003B05DF804FB85
